:020000040808EA
:1000000000000808F4490808000006000A0005017D
:080010000402FD0800000000DD
:040018003843080859
:10001C0008B5024B1B689B6D019308BD2C000608AC
:10002C0009480A4908B5884205D0094A824202D0DB
:10003C00121A04F004F80748074A0021121A04F0B7
:10004C000CF8064808BD00BF00000020484908080D
:10005C008400002088000020D9060020D90600204A
:10006C0070B502F0DFFE0025054E064CA41BA4085B
:10007C00A54200D170BD56F8043B98470135F7E70F
:10008C00044908082449080800F0AEBC08B500F083
:10009C00A5FFBDE8084002F07DBE01F0A3BB01F056
:1000AC00A1BB01F0A7BB0078B0FA80F04009704703
:1000BC000123037070470368C9B29B68184700227C
:1000CC004270704770B506460C46154602F08EFF1E
:1000DC00317802F025F902F089FF210AFFF7EBFFD6
:1000EC0002F084FFE1B2FFF7E6FF02F07FFF036846
:1000FC0029469B68984702F079FFBDE8704002F0F2
:10010C0032B938B504460D4602F070FF217802F082
:10011C0007F902F06BFF290AFFF7CDFF02F066FF2B
:10012C00E9B2FFF7C8FF02F061FF02F01CF902F020
:10013C005DFF0122217802F0F0F802F057FF03680E
:10014C005B699847C0B238BDF8B5044616460F46F1
:10015C0002F04CFF7C2102F0E7F802F047FF217817
:10016C004900FFF7A8FF02F041FF002102F0F7F869
:10017C0002F03CFF03227C2102F0CFF802F036FFA4
:10018C0003685B699847054602F030FF0368EDB2DF
:10019C005B699847044602F029FF03685B6998473E
:1001AC00C4F30313240204F47064C0B203EB05150A
:1001BC0004443D803480F8BD13B50446017002F050
:1001CC0015FF02F07BF820460DF1060201A9FFF79E
:1001DC00BBFFBDF804300A2B08D1BDF80630B3F5CF
:1001EC00A26F03D10120607002B010BD0020FBE7AC
:1001FC0008B5044902F0B2FA18B105220120024BED
:10020C001A7008BD90430808E000002008B5074BA1
:10021C001B784BB10121062002F091FEBDE808408D
:10022C000021062002F08BBE08BD00BF0400002098
:10023C0008B50D4902F092FAA0B10121002002F09C
:10024C007EFE0121072002F07AFE42F2107001F0CE
:10025C0015FB0021084602F072FE0720002102F077
:10026C006EFE012008BD00BF9043080808B5054983
:10027C0002F074FA20B10F20012102F060FE01207F
:10028C0008BD00BF9043080813B50446044B1B7807
:10029C008DF800303C2301F0D9FD204602B010BD92
:1002AC00A000002000224068114601F053BA000063
:1002BC0081B20148FFF725BFB90000200A4681B280
:1002CC000148FFF7FFBE00BFB900002070B5074E14
:1002DC0084B221463046FFF714FF611C054689B2F3
:1002EC003046FFF70EFF05EB002070BDB900002073
:1002FC0070B50D46074E84B2CAB230462146013461
:10030C00FFF7E0FE3046C5F30722A1B2BDE870400E
:10031C00FFF7D8BEB900002008B50A4902F01EFA52
:10032C0070B100210320FFF7C9FF0021064B0A2002
:10033C001960064B1970064B1960FFF7D9FF0120A5
:10034C0008BD00BF90430808D8000020B80000206A
:10035C00B40000202DE9F0410F4E84B22146304606
:10036C00FFF7CFFE611C054689B23046FFF7C9FE88
:10037C00A11C804689B23046FFF7C3FEE11C07463C
:10038C0089B23046FFF7BDFE05EB082505EB0745A6
:10039C0005EB0060BDE8F081B900002070B50D469A
:1003AC000E4E84B2CAB230462146FFF78BFE611C5A
:1003BC003046C5F3072289B2FFF784FEA11C3046F4
:1003CC00C5F3074289B20334FFF77CFE30462A0E90
:1003DC00A1B2BDE87040FFF775BE00BFB9000020A8
:1003EC0030B5174D99B004AC0FCD0FC40FCD0FC461
:1003FC0095E8030084E8030012490EA801F0A2FA64
:10040C000EA801F0F2FA04460EA801F00DFB054609
:10041C000EA801F033FB18AB03EB840402F0A8FF29
:10042C00CDE90201284602F0A3FFCDE90001064AFE
:10043C00112154F8503C054801F0F4F919B030BDC5
:10044C00EC450808F8000020B243080800400240C0
:10045C002DE9F0472F4D2846FFF724FF044608B33B
:10046C0000F048FF2C4D4FF0000A286001F00AF90B
:10047C0001F010F9002000F04DFF47F22F58044610
:10048C004FF00009002000F045FF061B61EB0A0746
:10049C00B94508BFB04532D301F004F978BB01F07F
:1004AC00F1F8EFE7034602460146686801F05AF995
:1004BC00234622462146686801F034F9204600F0B4
:1004CC0029FF8246002000F025FF0023B0EB0A082C
:1004DC00124A61EB04094B4508BF424506D3284636
:1004EC00FFF7E0FE10B901F0CDF8EBE70948FFF794
:1004FC00D9FE0028B4D100242046BDE8F08701F0D5
:10050C00D1F804460028F6D000F0F4FE286001F083
:10051C00B9F8F1E7F8000020040600208F5F010015
:10052C0008B501F0BFF880F00100C0B208BD0000B2
:10053C002DE9F043002485B001A8CDE90144ADF8C4
:10054C000C4001F06FFB204600F0E4FE42F20F7805
:10055C0005464FF00009002000F0DCFE461B61EB65
:10056C000407B94508BFB04505D3FFF7D9FF10B94B
:10057C0001F088F8EFE70B4CFFF7D2FF00220221C5
:10058C00606801F0DFF840F6B83001F077F900232D
:10059C0060681A46194601F0EDF8012005B0BDE877
:1005AC00F08300BFF8000020002210B586B01820A0
:1005BC0002A9029200F0EEFFB8B9029C0CB12369BB
:1005CC0023B900210A200E4A00F0DCFF0023ADF80D
:1005DC000E300C23ADF80C3001AB04930423012135
:1005EC0005932046236903AA9847002805DB019848
:1005FC00013818BF012006B010BD0120FBE700BF79
:10060C00F11208082DE9F74F854D0720FFF750FE32
:10061C0095F80090834B844FC3F800900023834ED1
:10062C003870834834682B70FFF73CFEB04608B135
:10063C00FFF7D6FE7F4801F0D9FD03F06FFC7E4B2F
:10064C007E4E18607E4B1A789A4612F0010FBFF35B
:10065C005B8F09D11846FFF726FD28B100F06AFE22
:10066C0030605046FFF724FD3368D3F8D433D3F809
:10067C0010B09AF80030BFF35B8FDA0709D47048DA
:10068C00FFF711FD28B100F055FE30606C48FFF704
:10069C000FFD3368B3F8D83313EA0B0F02BF2B7876
:1006AC0043F001032B709AF80030BFF35B8FDB072C
:1006BC0009D46348FFF7F7FC28B100F03BFE30602B
:1006CC005F48FFF7F5FC3368D3F8B833D3F810B0B4
:1006DC009AF80030BFF35B8FD80709D45848FFF75E
:1006EC00E2FC28B100F026FE30605548FFF7E0FC34
:1006FC003368B3F8BC3313EA0B0F02BF2B7843F00B
:10070C0002032B709AF80030BFF35B8FD90709D422
:10071C004B48FFF7C8FC28B100F00CFE306048488D
:10072C00FFF7C6FC3368D3F89C33D3F810B09AF8B3
:10073C000030BFF35B8FDA0709D44148FFF7B3FCF5
:10074C0028B100F0F7FD30603D48FFF7B1FC33688D
:10075C00B3F8A03313EA0B0B3FD12B780B2043F0EB
:10076C0004032B7002F004FC364B40F6FF72186049
:10077C002023594600935B4601F074F8631C9842A1
:10078C00C8F8000027DC013CA042ACBF00240124C7
:10079C003B789B0710D402F04CF902460146C31774
:1007AC002948C0E900230E20FFF7F8FD397807200F
:1007BC0041F00201FFF782FDFFF7F6FE18B12B782E
:1007CC0063F07F032B70287848450CBF204601202E
:1007DC0003B0BDE8F08F0124DAE7397811F0020498
:1007EC001BD081F002010720FFF768FD02F021F910
:1007FC00154BC117D3E9002303F01AFC0022134B4D
:10080C0002F038FF03F01EF8114B00241968014464
:10081C000A201960FFF76CFDCEE7C8F80040CBE763
:10082C00A2000020A4000020B0000020C80000207E
:10083C00F8000020A8000020E40000208C0000201C
:10084C0088000020CC000020D000002000004E408A
:10085C00B400002008B500F04DFD054B1B68C01A14
:10086C00044B1B68984234BF0020012008BD00BF18
:10087C00BC0000200800002008B5FFF7EBFF10B902
:10088C0000F000FFF9E7BDE80840FFF7E3BF000008
:10089C0008B500F02FFD054B1B68C01A044B1B68F4
:1008AC00984234BF0020012008BD00BFC0000020CA
:1008BC0010000020002330B585B001A8CDE901332C
:1008CC00ADF80C3001F0AEF900F014FD43F69725AD
:1008DC00044600F0E7FE40B100F00CFD001BA842FE
:1008EC0003D8642000F0CAFFF3E7002147F230522E
:1008FC000846084B00F0C6FC4FF47A7000F0BEFFBF
:10090C00054B0A2201211B6801A801F0A3FF05B0C9
:10091C0030BD00BFCB4308089C00002038B50468EC
:10092C0005467CB16368013B63605BB92368204674
:10093C009B689847A368013BA3601BB923682046BA
:10094C00DB689847284638BD2DE9F3410720FFF7AF
:10095C00AFFC1F4A1F4905466846FFF795FC01A8E6
:10096C00FFF7DCFF08241C4E1C4FDFF878800021B9
:10097C002046FFF7A3FCB4F5005F13D102F06AF92F
:10098C00174901F037FE0134B4F5004FEFD1294679
:10099C000720FFF793FC09210020FFF78FFC02B022
:1009AC00BDE8F081B4F5804F03D102F053F9414614
:1009BC00E7E7B4F5C04F03D102F04CF93946E0E754
:1009CC0047F6FF739C42DED102F044F93146D8E77A
:1009DC00D843080855440808094408080044080886
:1009EC00EE430808F743080830B50021A9B00A20E7
:1009FC0002F094FA0121102002F090FA00210B2051
:100A0C0002F08CFA00210C2002F088FA012100205F
:100A1C0002F084FA01210024084602F07FFA00213A
:100A2C00232002F07BFA0021222002F077FA002129
:100A3C00212002F073FA0021202002F06FFA00212D
:100A4C001F2002F06BFA00211E2002F067FA012130
:100A5C000F2002F063FA0121062002F05FFA002158
:100A6C00112002F05BFA0121072002F057FA002155
:100A7C00052002F053FA0021042002F04FFAFFF790
:100A8C00C5FB04A800F016FE00237D2208A904A8CB
:100A9C0001F076FE234622466A49CDE9004408A8B7
:100AAC0000F018FE234602226749684800F0DAFD80
:100ABC00234604226649674800F0D4FD23460222EF
:100ACC006549664800F0CEFD23460422644965481A
:100ADC0000F0C8FD234602226349644800F0C2FDC1
:100AEC00234602226249634800F0BCFD23460222E1
:100AFC006149624800F0B6FD614A6249624801F002
:100B0C0080F8624A6249604801F07BF8614A6249A8
:100B1C005D4801F076F8614A61495B4801F071F873
:100B2C00604A6149584801F06CF8604A604956487F
:100B3C0001F067F85F4A6049534801F062F85021B0
:100B4C005E48FFF739FB5E4D002868D100F0D2FB00
:100B5C005C4B186001232B700320FFF7A9FB0022CC
:100B6C003D4C1146206003A8039200F0ABFB039BA5
:100B7C00142B06D12168032001312160C9B2FFF783
:100B8C009DFB2368052B05DD04210320FFF796FB55
:100B9C00FFF790FE0420FFF78BFB00F10B03DBB299
:100BAC00162B4DD840B202F09FFF01F0CFFE07206C
:100BBC00FFF77EFB444C454B2070C0F3C00018700F
:100BCC000A20FFF783FB2C4B186023789B0706D574
:100BDC000E20FFF7BFFB00223D4B18605A603D48CA
:100BEC0001F004FB03F09AF91F4B18603A4B1B6899
:100BFC00984201DDFFF72CFC0023012237490093BA
:100C0C0011204FF0FF3301F0C5FB2B7804A8012B0A
:100C1C001CBF02232B7001F02AFD29B030BD2046E9
:100C2C00FFF746FB092897D0FFF78EFE2046FFF70B
:100C3C003FFB09288AD121460720FFF73FFB8BE7B2
:100C4C002748B2E7090D0808A40000200E44080844
:100C5C000040024015440808D80000201C44080835
:100C6C001446080827440808E40000202F4408080C
:100C7C00C80000203A440808B40000204344080887
:100C8C004F440808F10C0808E31B08085A440808EC
:100C9C003D02080866440808250308087344080840
:100CAC00790208087E440808FD01080887440808F2
:100CBC00950D080894440808310E0808B900002066
:100CCC00E0000020DC000020B0000020F00000203C
:100CDC00D0000020A8000020000000201902080805
:100CEC000000A0C008B5044901F038FD10B1FFF7B1
:100CFC002BFE012008BD00BF9043080813B50C461D
:100D0C0079B9FFF7B9FD194A19496846FFF7BCFADA
:100D1C0001A8FFF703FE00F0EDFA164B186002B0C5
:100D2C0010BD084603F080F9C838012814D8FFF725
:100D3C00A3FD114B1B783BB16846104A1049FFF7D5
:100D4C00A3FA01A8FFF7EAFD00F0D4FA0022094B40
:100D5C0018600C4B1A70E2E7684622460449FFF70C
:100D6C0093FA01A8FFF7DAFDD9E700BFA144080800
:100D7C00A9440808BC000020F0000020B644080874
:100D8C00C8440808B800002037B51E49054601F0D4
:100D9C00E5FC0446F0B101241B4B07201C70FFF747
:100DAC0087FA1A4B0720197841F008011970FFF7E0
:100DBC0085FAFFF761FD164A16496846FFF764FA93
:100DCC0001A8FFF7ABFD00F095FA134B186001205A
:100DDC0003B030BD2846114901F0C0FC0028F7D003
:100DEC00094B07201C70FFF763FA084B0720197892
:100DFC0001F0F7011970FFF761FAFFF73DFD084AA2
:100E0C00DAE700BF90430808F0000020B000002093
:100E1C00CE440808F1440808BC000020DF44080850
:100E2C00E144080830B5C9B00A22006801A903F0F2
:100E3C000BFAC5B205F10C03DBB2182B3CD844B24B
:100E4C00204602F051FE01F081FD29460420FFF7F7
:100E5C0035FA01F0EEFD194DC1172346C5E9000125
:100E6C00174A4FF4807108A800F0DCFCFFF704FD72
:100E7C00144908AA04A8FFF707FA05A8FFF74EFDC6
:100E8C0000F038FA104C2060FFF7F6FCD5E900238F
:100E9C0004A801F079FD049A0A4902A8FFF7F4F9B5
:100EAC0003A8FFF73BFD04A801F0E1FB00F022FAD8
:100EBC002060012049B030BD0020FBE7E800002095
:100ECC00F64408080A450808BC000020002110B5AB
:100EDC00A4B07C2205A8049103F0BFF8184B1C7831
:100EEC00E00703D5174904A803F0E4F8A10703D5DC
:100EFC00154904A803F0DEF8620703D5134904A8CA
:100F0C0003F0D8F8230603D5114904A803F0D2F84E
:100F1C00FFF7B2FC0F4B1B7863B10F4B02A81B7889
:100F2C000E498DF8003004AA3C2300F08FFF03A873
:100F3C00FFF7F4FC00F0DEF9094B186024B010BD8B
:100F4C00A20000200F450808204508082D45080878
:100F5C0038450808F0000020A10000200E440808C5
:100F6C00BC00002000B5144BC7B01B684FF4807157
:100F7C000393124B124A1B6806A80293114B1B6871
:100F8C000193114B1B680093104B1B7800F04AFC2B
:100F9C000F4B06AA1B780F498DF8003004A83C2390
:100FAC0000F054FF05A8FFF7B9FC01220A4B1A7098
:100FBC0047B05DF804FB00BFD8000020E40000201F
:100FCC0047450808B4000020C8000020A2000020FB
:100FDC00A100002092450808B800002037B56E4CDF
:100FEC002378013B052B4FD8DFE803F0AF034E35D8
:100FFC005085FFF74DFC10B900F044FBF9E7FFF703
:10100C0047FCFFF7FFFA08B10523237000F072F9D3
:10101C00624B186001F01EFD614B1B78984211D099
:10102C000523237001F016FD054658B95D4B0146AA
:10103C0018600A20FFF75CF900F034FB10B1284669
:10104C0000F050FB584B1A68584B1B689A421BDC3B
:10105C000423237018E000F025FB08B1FFF768FAB1
:10106C000021534B0720197001F069FFFFF7CEF8F0
:10107C0001F0FCFC3C224F4BC0F13C0042430121EF
:10108C0068461B6801F0E6FB03B030BDFFF7BEF805
:10109C000023494D2B7000F005FB40B9FFF7D8F940
:1010AC0028B900F027F9454B18600123D1E7444BD0
:1010BC001B780BB1FFF70AFFFFF754FF00F01AF98A
:1010CC00404B186001F0C6FC354B1870FFF7D4FB91
:1010DC0001232B703C4B1B783BB168463B4A3C4987
:1010EC00FFF7D2F801A8FFF719FC00F003F9394B10
:1010FC0018600623ADE7384B1B789BB9022323708D
:10110C00FFF7BAFB304B1B783BB1344A6846304989
:10111C00FFF7BAF801A8FFF701FC00F0EBF82D4B34
:10112C001860B1E700F0E6F8264B1B68C01A2C4B90
:10113C001B689842A8D300F0DDF8204B18600123FF
:10114C002370FFF799FB274AE0E700F0D3F81B4B1D
:10115C001B68C01A244B1B68984295D31A4B1B78FA
:10116C003BB16846214A1A49FFF78EF801A8FFF7F0
:10117C00D5FB4FF4FA6000F081FB1D4B1B68032B71
:10118C0002DC01F064FB7FE700210320FFF796F8F7
:10119C00FFF790FB78E700BFE0000020C0000020C4
:1011AC00B1000020B4000020E4000020000000206A
:1011BC00C40000209C00002004000020DC00002063
:1011CC00A2000020F4000020F0000020A345080835
:1011DC00C8440808BC000020B8000020B845080826
:1011EC0014000020BD4508080C000020D445080858
:1011FC00D800002038B500240125124B12481C6081
:10120C00124B1C70124B1D70FEF759FF114B124AFA
:10121C001C609C809C719A60022000F0CDF92146E4
:10122C00284600F0E1F92946042000F043F8214655
:10123C000A4800F08DFF2146BDE83840084801F00F
:10124C009CB900BF9C000020B9000020A000002029
:10125C00A1000020900000200000FFFFA80000204B
:10126C00C500002008B5024B1B68DB6B019308BD61
:10127C002000060808B5024B1B685B6C019308BD87
:10128C002000060808B5024B1B689B6C019308BD37
:10129C002000060808B5024B1B685B6C019308BD67
:1012AC00D001040808B5024B1B689B6C019308BD68
:1012BC00D001040808B5024B1B685B6E019308BD96
:1012CC00B801040808B5024B1B68DB6E019308BD1E
:1012DC00B801040808B5024B1B685B68019308BD94
:1012EC009C01040808B5024B1B68DB68019308BD20
:1012FC009C01040808B5024B1B685B69019308BD8F
:10130C009C01040808B5024B1B689B6D019308BD3A
:10131C009C01040808B5024B1B68DB6D019308BDEA
:10132C009C01040808B5024B1B685B6E019308BD59
:10133C009C01040808B5024B1B681B68019308BD8F
:10134C00B001040808B5024B1B685B68019308BD2B
:10135C00B001040808B5024B1B689B68019308BDDB
:10136C00B001040808B5024B1B68DB68019308BD8B
:10137C00B001040808B5024B1B681B69019308BD3A
:10138C00B001040808B5024B1B689B69019308BDAA
:10139C00B001040808B5024B1B68DB69019308BD5A
:1013AC00B001040808B5024B1B681B6B019308BD08
:1013BC00B001040808B5024B1B68DB68019308BD3B
:1013CC00AC01040808B5024B1B689B69019308BD6E
:1013DC00AC01040808B5024B1B68DB69019308BD1E
:1013EC00AC01040808B5024B1B681B6A019308BDCD
:1013FC00AC01040808B5024B1B685B6A019308BD7D
:10140C00AC01040808B5024B1B689B6A019308BD2C
:10141C00AC01040808B5024B1B68DB6A019308BDDC
:10142C00AC01040808B5024B1B681B6B019308BD8B
:10143C00AC01040808B5024B1B685B6B019308BD3B
:10144C00AC01040808B5024B1B681B6C019308BD6A
:10145C00AC01040808B5024B1B689B6C019308BDDA
:10146C00AC01040808B5024B1B68DB6C019308BD8A
:10147C00AC01040808B5024B1B681B6D019308BD39
:10148C00AC01040808B5024B1B68DB69019308BD6D
:10149C00B401040808B5024B1B681B6A019308BD14
:1014AC00B401040808B5024B1B689B69019308BD85
:1014BC00C401040808B5024B1B685B6A019308BDA4
:1014CC00C401040808B5024B1B689B6A019308BD54
:1014DC00C401040808B5024B1B68DB6A019308BD04
:1014EC00C401040808B5024B1B681B6B019308BDB3
:1014FC00C401040808B5024B1B685B6B019308BD63
:10150C00C401040808B5024B1B689B6B019308BD12
:10151C00C401040808B5024B1B681B6C019308BD81
:10152C00C401040808B5024B1B681B68019308BD75
:10153C001C00060808B5024B1B681B69019308BD0B
:10154C001C00060808B5024B1B685B69019308BDBB
:10155C001C00060808B5024B1B689B69019308BD6B
:10156C001C00060808B5024B1B68DB69019308BD1B
:10157C001C00060808B5024B1B681B6A019308BDCA
:10158C001C00060808B5024B1B685B6B019308BD79
:10159C00A001020808B5034B1B68D3F898300193DF
:1015AC0008BD0000A001020808B5024B1B681B68AF
:1015BC00019308BDA401040808B5024B1B685B68C5
:1015CC00019308BDA401040808B5024B1B685B69B4
:1015DC00019308BDA401040808B5024B1B689B6964
:1015EC00019308BDA401040808B5024B1B68DB6A13
:1015FC00019308BDA401040808B5024B1B68DB6C01
:10160C00019308BDA401040808B5024B1B685B6D6F
:10161C00019308BDA401040808B5024B1B689B6D1F
:10162C00019308BDA401040808B5034B1B68D3F84B
:10163C009030019308BD0000A401040808B5034BC9
:10164C001B68D3F89C30019308BD0000A40104086A
:10165C0008B5034B1B68D3F8B830019308BD0000E4
:10166C00A401040808B5024B1B681B68019308BD54
:10167C00CC01040808B5024B1B685B68019308BDDC
:10168C00CC01040808B5024B1B689B68019308BD8C
:10169C00CC01040808B5024B1B68DB68019308BD3C
:1016AC00CC01040808B5024B1B685B69019308BDAB
:1016BC00CC01040808B5024B1B68DB69019308BD1B
:1016CC00CC01040808B5024B1B681B6A019308BDCA
:1016DC00CC01040808B5024B1B685B6A019308BD7A
:1016EC00CC01040808B5024B1B68DB6A019308BDEA
:1016FC00CC01040808B5024B1B681B6B019308BD99
:10170C00CC01040808B5024B1B68DB6B019308BDC8
:10171C00CC01040808B5024B1B685B6C019308BD37
:10172C00CC01040808B5024B1B685B68019308BD2B
:10173C00C801040808B5024B1B689B68019308BDDF
:10174C00C801040808B5024B1B68DB68019308BD8F
:10175C00C801040808B5024B1B681B69019308BD3E
:10176C00C801040808B5024B1B685B69019308BDEE
:10177C00C801040808B5024B1B689B69019308BD9E
:10178C00C801040808B5024B1B68DB69019308BD4E
:10179C00C801040808B5024B1B681B6A019308BDFD
:1017AC00C801040808B5024B1B681B6B019308BDEC
:1017BC00C801040808B5024B1B685B6B019308BD9C
:1017CC00C801040808B5024B1B681B6C019308BDCB
:1017DC00C801040808B5024B1B685B6C019308BD7B
:1017EC00C801040808B5024B1B681B68019308BDAF
:1017FC00A001040808B5024B1B685B68019308BD87
:10180C00A001040808B5024B1B689B68019308BD36
:10181C00A001040808B5024B1B681B69019308BDA5
:10182C00A001040808B5024B1B68DB69019308BDD5
:10183C00A001040808B5024B1B68DB6A019308BDC4
:10184C00A001040808B5024B1B681B6B019308BD73
:10185C00A001040808B5024B1B685B6C019308BD22
:10186C00A00104088A4210B507D0029C401AE41A61
:10187C006043521A90FBF2F0184410BD0021FFF7A0
:10188C00A3BE10B5836804460BB901F009FCC3680C
:10189C009847A3681BB1032221462046984720464F
:1018AC00BDE81040102101F0F7BBF0B5002685B063
:1018BC00044610460F461546039602F030FC7B6832
:1018CC0081B20096284603AAFFF7CCFC30B1314612
:1018DC00204600F0BBFD204605B0F0BD204603A914
:1018EC0000F0ACFDF7E7002240681146FFF752BF4D
:1018FC00002240681146FFF75DBF00224068FFF7E9
:10190C0051BF0022406881F00101FFF73BBF00236B
:10191C0040681A461946FFF72DBF002340681A4647
:10192C001946FFF71FBF002240681146FFF702BFA0
:10193C00002202214068FFF705BF002340681A46C9
:10194C00FFF7F0BEF0B5002518260F46194B3246AE
:10195C00036030332946C0E9025589B04360044620
:10196C00103002F07AFB2A4629467868FFF7F2FE1F
:10197C0018B9A060204609B0F0BD2946324602A82D
:10198C00CDE9005502F069FB684602A9ADF8086084
:10199C00FFF770FC10B10123A360EBE7009B019AE9
:1019AC00A360E2600BB90223A360204602A900F0F9
:1019BC00B8F8DFE76046080810B52824074B224624
:1019CC001846002102F049FB4FF0FF32426004221E
:1019DC00034B04805A60034A1A6010BD00010020BA
:1019EC00F8000020244608087047007D7047034625
:1019FC00007D70B19A69B2F1004F07D0022807D070
:101A0C00186AB0F1004018BF0120704700207047E1
:101A1C000120704703681B6A184710B5044628213B
:101A2C0001F03AFB204610BD08B5037D5BB1C069DF
:101A3C00002808DB02F058F8044902F05DF904496B
:101A4C0002F0A6F808BD0348FCE700BF00FF7F4783
:101A5C000000C842000080BF08B5037D4BB180690F
:101A6C00B0F1004F05D002F03FF8034902F044F901
:101A7C0008BD0020FCE700BF0000C84208B5037D8C
:101A8C005BB1406A002808DB02F02EF8044902F032
:101A9C0033F9044902F07CF808BD0348FCE700BFA9
:101AAC0000FF7F470000C842000080BF08B5037DDF
:101ABC004BB1006AB0F1004F05D002F015F80349A4
:101ACC0002F01AF908BD0020FCE700BF0000C84274
:101ADC0070B50C1E06460ADA2D2100F07CFD054679
:101AEC0061420A22304600F08FFD284470BD214629
:101AFC000025F6E770B50C46054681682046FFF7D1
:101B0C00E7FF2C210646204600F065FDE9680644F7
:101B1C002046FFF7DDFF304470BDA0F10400FFF755
:101B2C00E9BF30B50D4600F110040FCD0FC495E898
:101B3C00030084E80300012030BD7047002070478B
:101B4C0010B50446102101F0A7FA204610BD08B5C7
:101B5C00FFF7F6FF08BD10B58368044613B10322E6
:101B6C0001469847204610BD002230B54FF69C74B4
:101B7C00026084808D888C800C68858004600A608B
:101B8C0030BD10B504460068FFF734FE204610BD8A
:101B9C0038B5C468F4B12378022B03D104F10C00DE
:101BAC00FFF7EFFF656835B12846FFF7D4FF10212A
:101BBC00284601F071FAA56835B12846FFF7CBFF2E
:101BCC001021284601F068FA2046BDE8384014215F
:101BDC0001F062BA38BD10B588B00446684600F012
:101BEC0090FD694604A800F0AEFD04A8A047044689
:101BFC0004A800F03CFD684600F039FD204608B012
:101C0C0010BD1FB500231024CDE9020101926946D5
:101C1C001A461846ADF80230ADF80040FFF72AFD21
:101C2C0004B010BD1FB50C230021ADF804300368BF
:101C3C00ADF80D108DF80630037A8DF80F108DF875
:101C4C00073043680293437A01A88DF80C30FFF7F4
:101C5C0061FD05B05DF804FB0B68036013B15A68B5
:101C6C0001325A60704773B50E46044656F8043B71
:101C7C000D4601A831460093FFF7EEFF009B019A39
:101C8C0023600023626001A801930093FEF746FED7
:101C9C003046FEF743FE2846082101F0FDF92046A8
:101CAC0002B070BD13B56C460B46024603C884E8FF
:101CBC00030093E8030082E8030094E8030083E840
:101CCC00030002B010BD826810B50AB901F0E8F942
:101CDC00C368BDE81040184708B5006800F1100152
:101CEC00FFF7F1FF08BD826810B50AB901F0D8F909
:101CFC00C368BDE81040184708B5006800F1100132
:101D0C00FFF7F1FF08BD000038B50023044603605F
:101D1C0010200D46FEF7C1F928B10123C0E90133AB
:101D2C00024BC56003602060204638BD9C46080805
:101D3C0038B5002383608B6804460D462BB1022214
:101D4C009847EB68E360AB68A360204638BD0000A1
:101D5C00F0B589B004686846FFF706FF4FF0020340
:101D6C00D4E84F2F002A03D1C4E8413F0029F7D112
:101D7C0025D104F10C0569462846FFF7F5FE012331
:101D8C00BFF35B8F63700020BFF35B8F04F108031C
:101D9C0053E8006F43E80002002AF9D1BFF35B8FD0
:101DAC006EB1FFF729FC78B129463046FFF78BFF5F
:101DBC003046FFF7D0FE1021304601F06DF9684631
:101DCC00FFF7DFFE09B0F0BD314602A8FFF7B0FF08
:101DDC00E068B4F9105008B102F086F906901020B2
:101DEC00ADF81C50FEF759F90546E8B1002787609D
:101DFC001820FEF752F9044688B10146876002A804
:101E0C00FFF750FF049BA268A360059B0492E26855
:101E1C0006A9E36004F110000592FFF7A5FE084B3C
:101E2C002C60EB60074BAB6006A8FFF7AAFE02A87C
:101E3C00FFF791FE002229460348FFF7E5FBB7E7C1
:101E4C00E51C08087D1F08088F1808082DE9F047C5
:101E5C008AB005460C46174698469DF84890FFF701
:101E6C0021FC07AE824638BB4FF62E73059005A9B0
:101E7C003046ADF81830FFF777FE1420FEF70DF959
:101E8C00044648B1022303700123C0E901AA437040
:101E9C0031460C30FFF768FE2846214640F8044BCB
:101EAC00FFF732FF3046FFF76CFE05A8FFF769FE1F
:101EBC0028460AB0BDE8F0870C234FF0000A142026
:101ECC00CDE908AA0793FEF7E8F8014628B1C0E966
:101EDC0001AA80F800A080F801A004A80391FFF7E4
:101EEC0013FF224B08200893FEF7D7F8824628B13F
:101EFC00039B04A940F8043BFFF7AEFE424639466B
:101F0C00204600965FFA89F3CDF824A0FFF7DAFBA0
:101F1C00B8B9039B5B7803F0FF0293B94FF69C733F
:101F2C0005A903A80592ADF81830FFF711FF05A815
:101F3C00FFF727FE05A80999FFF795FE06A8FEF7FF
:101F4C00EDFC039B04A906A80593FFF785FE059BF2
:101F5C00069A2B6000236A6006A806930593FEF789
:101F6C00DDFC04A8FEF7DAFCA2E700BF412008085C
:101F7C00022AF8B5054607D0032A18D0012A01D148
:101F8C000B6803600020F8BD18200E68FEF785F87A
:101F9C00044650B13146FFF7CBFE3069B6F91470E8
:101FAC0008B102F0A1F82061A7822C60EAE704686E
:101FBC00002CE7D004F11000FFF7E3FD2046FFF7FB
:101FCC00CAFD1821204601F067F8DBE738B500237D
:101FDC0083608B6804460D462BB102229847EB6850
:101FEC00E360AB68A360204638BD022A70B5044696
:101FFC0007D0032A12D0012A01D10B6803600020FC
:10200C0070BD14200E68FEF748F8054620B1314625
:10201C00FFF7DCFF337C2B742560F0E70468002CA1
:10202C00EDD02046FFF797FD1421204601F034F83F
:10203C00E5E70000F0B5044689B00D4601A811464D
:10204C00FFF711FEA4B124B21DB1284602F04CF8E2
:10205C00054601A803A90395ADF81040FFF778FEDB
:10206C0003A8FFF78EFD02A8FEF758FC09B0F0BDDF
:10207C000123019DD5E84F2F002A03D1C5E8413F2C
:10208C000029F7D1EFD12B73BFF35B8F6B70BFF3CC
:10209C005B8F2B1D53E8006F43E80042002AF9D1F7
:1020AC00BFF35B8F002EDED02046FFF7A5FA074664
:1020BC0060B1304605F10C01FFF715FE3046FFF715
:1020CC004AFD1021304600F0E7FFCCE7314603A86B
:1020DC00FFF77CFF2B7B10208DF81C30FDF7DDFF0C
:1020EC000546D0B187601420FDF7D7FF044678B1C0
:1020FC000146876003A8FFF7D5FD059BA268A36086
:10210C00069B0592E268E3609DF81C3006922374EE
:10211C00064B2C60EB60064BAB6003A8FFF71BFD76
:10212C00002229460348FFF76FFAC7E7051D080888
:10213C00F71F08088F180808006800F017B910B5C9
:10214C000446016002710AB1FFF7F6FF204610BD8C
:10215C0038B504460D4600F06DFF2A460146204670
:10216C00FFF7EDFF204638BD006800F008B92DE9F7
:10217C00FF4104460D4617461E46FFF7DDFF36238A
:10218C008DF8003000234FF0010801930A236946B3
:10219C00206803938DF8088000F0C9F82068294660
:1021AC0003689B6898474146206800F0D8F80546BC
:1021BC0040B16FF09F052046FFF7D6FF284604B0CC
:1021CC00BDE8F081022369462068019300F07CF899
:1021DC000228EED1206803685B6998473870206844
:1021EC0003685B6998473070E5E70000002313B57E
:1021FC0004218DF806308DF807300DF106020DF133
:10220C000703FFF7B4FFA0B99DF8070001F09EF893
:10221C000022094B01F004F901F05CFB04469DF827
:10222C00060001F061FC0146204601F0A9FB02B05A
:10223C0010BD0248FBE700BF0000703F000080BFEC
:10224C007047F8B5064615460C468F18BC4206D0AA
:10225C00336830469B6814F8011B9847F6E728460C
:10226C00F8BD0022007CFFF7BDB80021007CFFF711
:10227C00C1B80021007CFFF7C5B80021007CFFF736
:10228C00C9B80021007CFFF7CDB810B50446142165
:10229C0000F002FF204610BD10B54FF47A730446CF
:1022AC0008460021C4E90113034B11462360207436
:1022BC00FFF7C8F8204610BDB84608080023007C7C
:1022CC001A461946FFF776B87FB500221423CDE9DC
:1022DC000122ADF804300B78007C8DF808304B6887
:1022EC000393CB6804930B7A01A90593FFF7C2F80B
:1022FC0007B05DF804FB1FB5003B8DF800104FF0E4
:10230C00640118BF01230391694601928DF80830CE
:10231C00FFF7DAFF05B05DF804FB0123FFF7EBBF15
:10232C000022007CFFF74EB8C9B2FFF7F9BF7FB5AA
:10233C0000220B46CDE901221422ADF804205A6884
:10234C0009780392DA681B7A0492007C01AA8DF852
:10235C0008100593FFF736F807B05DF804FB002270
:10236C00007CFFF737B80121FFF7F9BF08B5002152
:10237C00007CFFF76FF8B0FA80F0400908BD08B593
:10238C000021007CFFF76EF8B0FA80F0400908BD20
:10239C00004700002DE9FF4100241D460F469046E2
:1023AC000646FEF7F7FF0423A5428DF80C30A8BFB4
:1023BC009DF82830ADF80D408DF80F40A4BF03AC4C
:1023CC008DF80E303A464346304606490094A8BF75
:1023DC008DF80D50FEF7D6FFB0FA80F0400904B02E
:1023EC00BDE8F0819D230808704710B5044608210C
:1023FC0000F052FE204610BDF8B50E46002400F148
:10240C000807051D17F8011D0A22304600F0FCF8DC
:10241C00AF42044401D12046F8BD002CF2D02E214D
:10242C00304600F0D8F80444ECE70000024A0260A1
:10243C0000224260704700BFE0460808024A026072
:10244C000A684260704700BFE0460808014AC0E9CC
:10245C0000217047E046080810B59DF8084044EA92
:10246C00032444EA024444EA0164446010BD0000C1
:10247C0037B5044D05609DF818500095FFF7ECFF3B
:10248C0003B030BDE0460808014B024A1A607047A1
:10249C0028010020EC460808002340681A46FFF784
:1024AC0041B9002202214068FFF74CB90022406874
:1024BC001146FFF73FB9002240681146FFF74AB9B1
:1024CC00002340681A461946FFF74CB900234068B0
:1024DC001A461946FFF74EB900214068FFF772B94A
:1024EC0000214068FFF776B90022406881F00101B5
:1024FC00FFF748B900224068FFF754B90022406842
:10250C001146FFF757B9002240681146FFF742B950
:10251C0070B51546002686B0044604A8FFF786FF62
:10252C002846039601F0FBFD0A4B009681B25B68CE
:10253C00284603AAFEF796FE30B131462046FFF737
:10254C0085FF204606B070BD204603A9FFF776FF35
:10255C00F7E700BFF8000020024B034A1A60002284
:10256C005A6070472C010020F846080808B500F0A6
:10257C0061FDBDE80840FFF7F9BE10B504460170D7
:10258C0009B1FFF7F3FF204610BDF8B506460D461E
:10259C0000248F18BD420CD0336830469B6815F868
:1025AC00011B9847031E01DB1C44F3E7002C08BFFA
:1025BC001C462046F8BD70B505460C46084649B188
:1025CC0001F0ADFD2B68024621462846BDE870405F
:1025DC00DB68184770BD03689B68184738B50D2138
:1025EC000546FFF7F8FF0A2104462846FFF7F3FFDC
:1025FC00204438BD38B50546FFF7DDFF04462846B4
:10260C00FFF7ECFF204438BD0023012A98BF0A22B3
:10261C0030B58BB00C468DF8243009A92546B4FB97
:10262C00F2F404FB1253DBB2092B94BF3033373373
:10263C00DBB2AA4201F8013DF0D9FFF7BCFF0BB0A9
:10264C0030BD00000022014B9A607047340100201D
:10265C0070B5002604460D4640F8086FFEF71AFECA
:10266C0028462570FEF70EFF2046666070BD10B53B
:10267C0004460068FFF7BEF8204610BD10B50446AE
:10268C00006808B1FFF7B6F80023C4E901332360F2
:10269C0010BD38B504460D4600680131FFF7B2F89D
:1026AC0010B1C4E90005012038BD10B5036804461B
:1026BC0023B143688B4201D3012010BD2046FFF7A4
:1026CC00E8FF0028F9D0A368002BF5D1226813701D
:1026DC00F2E770B50E46114604461546FFF7E5FFC6
:1026EC0020B92046FFF7CAFF204670BD2A46314666
:1026FC002068A56001F0A3FC00212268A368D154D6
:10270C00F2E738B5002304460D46C0E90033836078
:10271C00037339B1084601F002FD294602462046F2
:10272C00FFF7D7FF204638BD884210B50B4604464C
:10273C0004D0096821B19A68FFF7CBFF204610BD81
:10274C00FFF79CFFFAE7002310B50446C0E90033FD
:10275C0083600373FFF7E8FF204610BD08B582685D
:10276C003AB921B10878B0FA80F0400900E00120B4
:10277C0008BD006809B90078F5E701F0AAFCF2E79A
:10278C0058B50E462AB121B18468A34202D3002366
:10279C000B7058BDE41A013A944228BF14460168E4
:1027AC0022461944304601F0C2FC00233355F0E7B1
:1027BC0010B50446006818B1FFF71CF8002323601D
:1027CC0010BD38B5B1F904300D4683800B4653F873
:1027DC00062F0446C0F806209B884381FFF7E8FFCC
:1027EC002B6813B1236000232B60204638BDB1F950
:1027FC00043010B50A6833B932B951F8063F03609A
:10280C008B88838010BD22B19488012C03D0042CBA
:10281C0006D0042205E092898C710B814A81ECE789
:10282C0002220B814FF6FF738A714B81E5E707B5E6
:10283C000B4600210246009101208C21FEF708FF77
:10284C0003B05DF804FB01460020FFF7F0BF002049
:10285C00FFF7F9BF30B5044685B0084611461A4655
:10286C000023FEF7B9FE00230193ADF808308DF874
:10287C000A304FF6FF73094D01A9ADF80C0028463C
:10288C00ADF80E30FFF79DFF01A8FFF791FF204632
:10289C002946FFF7ACFF204605B030BD44010020AF
:1028AC0002220020044B1A60044B054A18609880E1
:1028BC0098719A60FEF780BE500100204401002000
:1028CC000000FFFF2DE9F041154ADFF86080D2E9E6
:1028DC000032C01842EB0101124A8CB0D2E900322E
:1028EC00C61841EB0207D8E90023BB4208BFB2422D
:1028FC0013D003A96846CDE90067FDF789FB089B57
:10290C00094D03F26C7303AC08930FCC0FC50FCCBD
:10291C000FC5C8E9006723682B600CB0BDE8F081D7
:10292C008801002080010020580100209001002027
:10293C0008B50020FEF7DEFE28B1FEF7B3FE80F0EE
:10294C000100C0B208BD0120FCE7000010B50A4927
:10295C00044601F0BBFA68B92046084901F0D4FAE4
:10296C0040B90749204601F013F901F0FDFA054B77
:10297C00C3E9000110BD00BF000040C10000604170
:10298C00000061458801002030B50446184893B01A
:10299C00D0E90010521840EB030316480025D0E98B
:1029AC000010521840EB0303CDE900232422002130
:1029BC000DEB020001F051FB09A96846FDF728FB5D
:1029CC001622294603A8029501F047FB02A909A883
:1029DC0001F0FEFA02A801F0A2FB12AB184400F8B9
:1029EC00415C02A92046FFF78CFE204613B030BD97
:1029FC00880100208001002010B50020FEF782FC29
:102A0C000446A0B9FEF7D0FD012810D12046FEF7F0
:102A1C0003FE60B9FFF78CFF10B9FEF733FEF9E740
:102A2C00FFF786FFBDE810400020FEF76BBC204688
:102A3C0010BD1FB5FFF7E0FF10220021684601F022
:102A4C000CFB00216846FEF76DFC009805B05DF8A4
:102A5C0004FB000008B5FFF7ECFFC117FFF732FFCE
:102A6C00014B986808BD00BF5801002008B5FFF75E
:102A7C00E0FFC117FFF726FF014B586808BD00BFE8
:102A8C0058010020024B1A68024B1A60704700BFB5
:102A9C0018000020540100207047417470477047A3
:102AAC0008B5007CFEF736FD20EAE07008BD08B5DD
:102ABC00007CFEF707FD20EAE07008BD08B5007C3D
:102ACC00FEF710FD40EAE07008BD08B5007CFEF78B
:102ADC0001FD40EAE07008BD007CFEF70BBD70B54F
:102AEC00467C04460D462EB12946207CBDE870403C
:102AFC00FEF7E0BC007CFEF70DFD0028F4DC304650
:102B0C0070BD10B50446142100F0C6FA204610BD65
:102B1C004FF0000C10B50446084611464FF47A727B
:102B2C00C4E901C2044A20742260012262741A466C
:102B3C00FEF7B8FC204610BD5047080838B50C4DC0
:102B4C002978BFF35B8F11F001040FD12846FDF7F4
:102B5C00AAFA58B12146074B074A0848FFF7D8FF95
:102B6C002846FDF7A5FA064801F058FA034838BD87
:102B7C0098010020200200209C010020A4020020CB
:102B8C00AB2A0808417470477047704708B500219C
:102B9C00007CFEF7DFFC40EAE07008BD08B50121BF
:102BAC00007CFEF7D7FC40EAE07008BD08B5007C5D
:102BBC00FEF7C8FC20EAE07008BD08B5007CFEF703
:102BCC00B9FC20EAE07008BD38B50446007C0D461F
:102BDC00FEF7B8FC002801DC607C28B12946207C7B
:102BEC00FEF7C0FC20EAE07038BD007CFEF7C2BCEA
:102BFC0010B50446142100F04FFA204610BD704762
:102C0C0010B54FF47A73044608460021C4E9011349
:102C1C00044B20742360012311466374FEF782FC7D
:102C2C00204610BD8047080810B504461422002128
:102C3C0001F013FA054B20466360054BE36040F24C
:102C4C00011323818123238210BD00BFE8020020E1
:102C5C00E903002030B50E4D87B001A8FFF7E4FF63
:102C6C002978BFF35B8F11F001040ED12846FDF7D4
:102C7C001AFA50B1214601AA0648FFF7C1FF2846AF
:102C8C00FDF716FA044801F0C9F9024807B030BD47
:102C9C00B8020020C0020020952B080810B504468D
:102CAC001422002101F0D9F9054B20466360054B35
:102CBC00E36040F2011323818123238210BD00BF06
:102CCC006A0400206B05002010B50E4C86B001A8DC
:102CDC00FFF7E4FF2378BFF35B8FDB070ED42046AE
:102CEC00FDF7E1F950B1012101AA0748FFF788FF70
:102CFC002046FDF7DDF9054801F090F9024806B0D1
:102D0C0010BD00BFBC020020D40200200B2C080810
:102D1C00014B1860704700BF1C00002008B5174B12
:102D2C0043B1FFF797FF03681B699847002801DD43
:102D3C00AFF30080124B43B1FFF700FF03681B6930
:102D4C009847002801DDAFF300800E4B0BB1AFF3B9
:102D5C0000800D4B0BB1AFF300800C4B0BB1AFF3FC
:102D6C0000800B4B43B1FFF7AFFF03681B6998471B
:102D7C00002801DDAFF3008008BD00BF000000009B
:102D8C000000000000000000000000000000000037
:102D9C000000000008B5FFF7C1FFFEF7ABFA014BCE
:102DAC00186008BD040600200548064A08B5121A2A
:102DBC00054901F044F9054B054A1A6008BD00BFEE
:102DCC0000400240184002403049080814400240BC
:102DDC001E1C279A002307B51A466FF07701009343
:102DEC00FEF72CFC03B05DF804FB000007B543882C
:102DFC000A2B08D0502B0BD1094B1B684BB103B0DD
:102E0C005DF804EB1847FFF7E5FF03B05DF804FB32
:102E1C0000231A466FF077010093FEF70FFCF4E7DE
:102E2C00F0050020002110B51148FEF713FD114BE1
:102E3C001A68114B9A420CBF012200220F4B1A70D8
:102E4C0001D0FFF7B1FFFEF745FA044601F00EF989
:102E5C000B4B13B12046AFF3008000210848FEF75E
:102E6C0051FCBDE8104000210648FEF7DDBB00BF59
:102E7C001D2D0808144002401E1C279AEC0500204A
:102E8C0000000000F92D0808024B986808B1FEF705
:102E9C0009BA7047F80500202E2870B5044601D9F0
:102EAC00002070BDA0F10D03022B0BD9012824D8F2
:102EBC0000F09CF80021007CFEF7BCFA80F00100C9
:102ECC00C0B2EEE7124E3178BFF35B8F11F0010503
:102EDC000DD13046FDF7E7F848B129460D48FFF70C
:102EEC00B7FB3046FDF7E4F80B4801F097F8094BB7
:102EFC001878FEF7CFFA0028D2D1123C012C05D855
:102F0C00FFF71CFE007CFEF7FDFAD7E70120C8E7AF
:102F1C00F4050020F8050020952E08082E2838B559
:102F2C0004460D460AD8FF2908D0FFF7B5FF28B193
:102F3C0029462046BDE83840FEF70CBA38BD38B5F6
:102F4C0004460D46FEF70EFAFF2810D0062804D8CA
:102F5C004D2323FA00F0C30709D42046FFF79CFF4A
:102F6C0028B129462046BDE83840FEF703BA38BDE3
:102F7C0010B5044609289CBF0A34A4B22046FFF7BA
:102F8C008BFF50B103212046FEF7DCF9032804D156
:102F9C002046BDE81040FEF705BA002010BD704772
:102FAC00002370B5202543801423084E044603806B
:102FBC00314685600561284600F070F83146606046
:102FCC00284600F06BF8E060204670BDA847080862
:102FDC00704710B50446FFF7E3FF204610BD10B54F
:102FEC000446FFF7DDFF204610BD000030B50E4D46
:102FFC0087B02978BFF35B8F11F0010411D12846FB
:10300C00FDF751F868B101A8FFF7E3FF214601AACB
:10301C000648FFF741F92846FDF74AF8044800F046
:10302C00FDFF024807B030BD080600201006002046
:10303C00AB2F080810B50E4C86B02378BFF35B8F0E
:10304C00DB0711D42046FDF72EF868B101A8FFF775
:10305C00C6FF022101AA0748FFF71EF92046FDF71B
:10306C0027F8054800F0DAFF024806B010BD00BF93
:10307C000C06002024060020DD2F0808002307B5CD
:10308C001A46194600930348FFF7F2F903B05DF8AE
:10309C0004FB00BF38060020FDF703B8FCF7FFBFA8
:1030AC0008B5FEF7C7FB000081F0004102E000BF4D
:1030BC0083F0004330B54FEA41044FEA430594EAEC
:1030CC00050F08BF90EA020F1FBF54EA000C55EA27
:1030DC00020C7FEA645C7FEA655C00F0E2804FEAF8
:1030EC005454D4EB5555B8BF6D420CDD2C4480EADA
:1030FC00020281EA030382EA000083EA010180EA0A
:10310C00020281EA0303362D88BF30BD11F0004F57
:10311C004FEA01314FF4801C4CEA113102D040428D
:10312C0061EB410113F0004F4FEA03334CEA1333C8
:10313C0002D0524263EB430394EA050F00F0A780E0
:10314C00A4F10104D5F1200E0DDB02FA0EFC22FADB
:10315C0005F2801841F1000103FA0EF2801843FACF
:10316C0005F359410EE0A5F120050EF1200E012AC0
:10317C0003FA0EFC28BF4CF0020C43FA05F3C018FE
:10318C0051EBE37101F0004507D54FF0000EDCF177
:10319C00000C7EEB00006EEB0101B1F5801F1BD320
:1031AC00B1F5001F0CD349085FEA30004FEA3C0C24
:1031BC0004F101044FEA445212F5800F80F09A801A
:1031CC00BCF1004F08BF5FEA500C50F1000041EB1E
:1031DC00045141EA050130BD5FEA4C0C404141EB22
:1031EC000101013C28BFB1F5801FE9D291F0000F1D
:1031FC0004BF01460020B1FA81F308BF2033A3F1CC
:10320C000B03B3F120020CDA0C3208DD02F1140CC2
:10321C00C2F10C0201FA0CF021FA02F10CE002F1FD
:10322C001402D8BFC2F1200C01FA02F120FA0CFCF6
:10323C00DCBF41EA0C019040E41AA2BF01EB04513F
:10324C00294330BD6FEA04041F3C1CDA0C340EDC3D
:10325C0004F11404C4F1200220FA04F001FA02F380
:10326C0040EA030021FA04F345EA030130BDC4F13E
:10327C000C04C4F1200220FA02F001FA04F340EA33
:10328C000300294630BD21FA04F0294630BD94F0E4
:10329C00000F83F4801306BF81F480110134013DCB
:1032AC004EE77FEA645C18BF7FEA655C29D094EA3C
:1032BC00050F08BF90EA020F05D054EA000C04BFBA
:1032CC001946104630BD91EA030F1EBF00210020A5
:1032DC0030BD5FEA545C05D14000494128BF41F044
:1032EC00004130BD14F580043CBF01F5801130BDA8
:1032FC0001F0004545F0FE4141F470014FF0000033
:10330C0030BD7FEA645C1ABF194610467FEA655CE3
:10331C001CBF0B46024650EA013406BF52EA033585
:10332C0091EA030F41F4002130BD00BF90F0000F73
:10333C0004BF0021704730B54FF4806404F13204AF
:10334C004FF000054FF0000150E700BF90F0000F68
:10335C0004BF0021704730B54FF4806404F132048F
:10336C0010F0004548BF40424FF000013EE700BF5F
:10337C0042004FEAE2014FEA31014FEA02701FBFEF
:10338C0012F07F4393F07F4F81F06051704732F021
:10339C007F4208BF704793F07F4F04BF41F4002178
:1033AC00704730B54FF4607401F0004521F00041D6
:1033BC001CE700BF50EA010208BF704730B54FF060
:1033CC0000050AE050EA010208BF704730B511F061
:1033DC00004502D5404261EB41014FF4806404F199
:1033EC0032045FEA915C3FF4D8AE4FF003025FEA1F
:1033FC00DC0C18BF03325FEADC0C18BF033202EBA3
:10340C00DC02C2F1200300FA03FC20FA02F001FAFC
:10341C0003FE40EA0E0021FA02F11444BDE600BF9F
:10342C0070B54FF0FF0C4CF4E06C1CEA11541DBF4E
:10343C001CEA135594EA0C0F95EA0C0F00F0DEF819
:10344C002C4481EA030621EA4C5123EA4C5350EAFE
:10345C00013518BF52EA033541F4801143F480134F
:10346C0038D0A0FB02CE4FF00005E1FB02E506F0E0
:10347C000042E0FB03E54FF00006E1FB03569CF035
:10348C00000F18BF4EF0010EA4F1FF04B6F5007F3B
:10349C0064F5407404D25FEA4E0E6D4146EB0606AD
:1034AC0042EAC62141EA55514FEAC52040EA5E5036
:1034BC004FEACE2EB4F1FD0C88BFBCF5E06F1ED8E0
:1034CC00BEF1004F08BF5FEA500E50F1000041EB17
:1034DC00045170BD06F0004646EA010140EA0200C4
:1034EC0081EA0301B4EB5C04C2BFD4EB0C0541EAE6
:1034FC00045170BD41F480114FF0000E013C00F3FB
:10350C00AB8014F1360FDEBF002001F0004170BD1E
:10351C00C4F10004203C35DA0C341BDC04F1140437
:10352C00C4F1200500FA05F320FA04F001FA05F2C3
:10353C0040EA020001F0004221F0004110EBD37090
:10354C0021FA04F642EB06015EEA430E08BF20EABC
:10355C00D37070BDC4F10C04C4F1200500FA04F35F
:10356C0020FA05F001FA04F240EA020001F00041F1
:10357C0010EBD37041F100015EEA430E08BF20EA64
:10358C00D37070BDC4F1200500FA05F24EEA020EAC
:10359C0020FA04F301FA05F243EA020321FA04F0DB
:1035AC0001F0004121FA04F220EA020000EBD37092
:1035BC005EEA430E08BF20EAD37070BD94F0000F92
:1035CC000FD101F00046400041EB010111F4801FC6
:1035DC0008BF013CF7D041EA060195F0000F18BF77
:1035EC00704703F00046520043EB030313F4801FB3
:1035FC0008BF013DF7D043EA0603704794EA0C0F6D
:10360C000CEA135518BF95EA0C0F0CD050EA410682
:10361C0018BF52EA4306D1D181EA030101F00041FF
:10362C004FF0000070BD50EA410606BF1046194627
:10363C0052EA430619D094EA0C0F02D150EA013633
:10364C0013D195EA0C0F05D152EA03361CBF104674
:10365C0019460AD181EA030101F0004141F0FE4113
:10366C0041F470014FF0000070BD41F0FE4141F497
:10367C00780170BD70B54FF0FF0C4CF4E06C1CEA97
:10368C0011541DBF1CEA135594EA0C0F95EA0C0F4C
:10369C0000F0A7F8A4EB050481EA030E52EA033507
:1036AC004FEA013100F088804FEA03334FF0805528
:1036BC0045EA131343EA12634FEA022245EA111555
:1036CC0045EA10654FEA00260EF000419D4208BF06
:1036DC00964244F1FD0404F5407402D25B084FEAB3
:1036EC003202B61A65EB03055B084FEA32024FF45F
:1036FC0080104FF4002CB6EB020E75EB030E22BFBC
:10370C00B61A754640EA0C005B084FEA3202B6EB7B
:10371C00020E75EB030E22BFB61A754640EA5C002A
:10372C005B084FEA3202B6EB020E75EB030E22BFBA
:10373C00B61A754640EA9C005B084FEA3202B6EBBB
:10374C00020E75EB030E22BFB61A754640EADC007A
:10375C0055EA060E18D04FEA051545EA16754FEADC
:10376C0006164FEAC30343EA52734FEAC2025FEAFA
:10377C001C1CC0D111F4801F0BD141EA00014FF089
:10378C0000004FF0004CB6E711F4801F04BF01435A
:10379C000020B4F1FD0C88BFBCF5E06F3FF6AFAE76
:1037AC00B5EB030C04BFB6EB020C5FEA500C50F106
:1037BC00000041EB045170BD0EF0004E4EEA113189
:1037CC0014EB5C04C2BFD4EB0C0541EA045170BD90
:1037DC0041F480114FF0000E013C90E645EA060ED4
:1037EC008DE60CEA135594EA0C0F08BF95EA0C0F02
:1037FC003FF43BAF94EA0C0F0AD150EA01347FF44A
:10380C0034AF95EA0C0F7FF425AF104619462CE720
:10381C0095EA0C0F06D152EA03353FF4FDAE104683
:10382C00194622E750EA410618BF52EA43067FF4D4
:10383C00C5AE50EA41047FF40DAF52EA43057FF464
:10384C00EBAE12E74FEA410212F5001215D211D578
:10385C006FF47873B3EB625212D94FEAC12343F081
:10386C00004343EA505311F0004F23FA02F018BF03
:10387C00404270474FF00000704750EA013005D1CC
:10388C0011F0004008BF6FF0004070474FF000008F
:10389C00704700BF4A0011D212F5001211D20DD59B
:1038AC006FF47873B3EB62520ED44FEAC12343F03A
:1038BC00004343EA505323FA02F070474FF00000E4
:1038CC00704750EA013002D14FF0FF3070474FF093
:1038DC00000070474FEA4102B2F1E04324BFB3F558
:1038EC00001CDCF1FE5C0DD901F0004C4FEAC0026B
:1038FC004CEA5070B2F1004F40EB830008BF20F04F
:10390C000100704711F0804F21D113F13872BCBF08
:10391C0001F00040704741F480114FEA5252C2F15D
:10392C001802C2F1200C10FA0CF320FA02F018BFA6
:10393C0040F001004FEAC1234FEAD32303FA0CFCF9
:10394C0040EA0C0023FA02F34FEA4303CCE77FEA88
:10395C00625307D150EA01331EBF4FF0FE4040F4D2
:10396C004000704701F0004040F0FE4040F4000081
:10397C00704700BF80F0004002E000BF81F00041C2
:10398C0042001FBF5FEA410392EA030F7FEA226CF9
:10399C007FEA236C6AD04FEA1262D2EB1363C1BF89
:1039AC00D218414048404140B8BF5B42192B88BFF8
:1039BC00704710F0004F40F4000020F07F4018BF1B
:1039CC00404211F0004F41F4000121F07F4118BF3B
:1039DC00494292EA030F3FD0A2F1010241FA03FCE3
:1039EC0010EB0C00C3F1200301FA03F100F00043CB
:1039FC0002D5494260EB4000B0F5000F13D3B0F193
:103A0C00807F06D340084FEA310102F10102FE2A01
:103A1C0051D2B1F1004F40EBC25008BF20F0010071
:103A2C0040EA03007047490040EB0000013A28BF10
:103A3C00B0F5000FEDD2B0FA80FCACF1080CB2EB93
:103A4C000C0200FA0CF0AABF00EBC2505242184311
:103A5C00BCBFD0401843704792F0000F81F40001B6
:103A6C0006BF80F400000132013BB5E74FEA410389
:103A7C007FEA226C18BF7FEA236C21D092EA030FF5
:103A8C0004D092F0000F08BF0846704790EA010F6F
:103A9C001CBF0020704712F07F4F04D1400028BF9C
:103AAC0040F00040704712F100723CBF00F500007E
:103ABC00704700F0004343F0FE4040F400007047B4
:103ACC007FEA226216BF08467FEA23630146420260
:103ADC0006BF5FEA412390EA010F40F48000704773
:103AEC004FF0000304E000BF10F0004348BF404219
:103AFC005FEA000C08BF704743F0964301464FF055
:103B0C0000001CE050EA010208BF70474FF00003B0
:103B1C000AE000BF50EA010208BF704711F00043F1
:103B2C0002D5404261EB41015FEA010C02BF8446C1
:103B3C000146002043F0B64308BFA3F18053A3F520
:103B4C000003BCFA8CF2083AA3EBC25310DB01FA67
:103B5C0002FC634400FA02FCC2F12002BCF1004FEB
:103B6C0020FA02F243EB020008BF20F0010070477C
:103B7C0002F1200201FA02FCC2F1200250EA4C00D0
:103B8C0021FA02F243EB020008BF20EADC70704716
:103B9C004FF0FF0C1CEAD0521EBF1CEAD15392EA24
:103BAC000C0F93EA0C0F6FD01A4480EA010C400200
:103BBC0018BF5FEA41211ED04FF0006343EA50105A
:103BCC0043EA5111A0FB01310CF00040B1F5000F9C
:103BDC003EBF490041EAD3715B0040EA010062F14B
:103BEC007F02FD2A1DD8B3F1004F40EBC25008BF35
:103BFC0020F00100704790F0000F0CF0004C08BF53
:103C0C0049024CEA502040EA51207F3AC2BFD2F11F
:103C1C00FF0340EAC250704740F400004FF000032D
:103C2C00013A5DDC12F1190FDCBF00F00040704767
:103C3C00C2F10002410021FA02F1C2F1200200FAA5
:103C4C0002FC5FEA310040F1000053EA4C0308BF6C
:103C5C0020EADC70704792F0000F00F0004C02BFBD
:103C6C00400010F4000F013AF9D040EA0C0093F038
:103C7C00000F01F0004C02BF490011F4000F013B92
:103C8C00F9D041EA0C018FE70CEAD15392EA0C0F00
:103C9C0018BF93EA0C0F0AD030F0004C18BF31F06B
:103CAC00004CD8D180EA010000F00040704790F041
:103CBC00000F17BF90F0004F084691F0000F91F0E5
:103CCC00004F14D092EA0C0F01D142020FD193EAAB
:103CDC000C0F03D14B0218BF084608D180EA010033
:103CEC0000F0004040F0FE4040F40000704740F00F
:103CFC00FE4040F4400070474FF0FF0C1CEAD052DD
:103D0C001EBF1CEAD15392EA0C0F93EA0C0F69D038
:103D1C00A2EB030280EA010C49024FEA402037D0A3
:103D2C004FF0805343EA111143EA10130CF000409A
:103D3C008B4238BF5B0042F17D024FF4000C8B428A
:103D4C0024BF5B1A40EA0C00B3EB510F24BFA3EB6A
:103D5C00510340EA5C00B3EB910F24BFA3EB91033A
:103D6C0040EA9C00B3EBD10F24BFA3EBD10340EA94
:103D7C00DC001B0118BF5FEA1C1CE0D1FD2A3FF6DA
:103D8C0050AF8B4240EBC25008BF20F0010070478F
:103D9C000CF0004C4CEA50207F32C2BFD2F1FF0332
:103DAC0040EAC250704740F400004FF00003013A63
:103DBC0037E792F0000F00F0004C02BF400010F407
:103DCC00000F013AF9D040EA0C0093F0000F01F01B
:103DDC00004C02BF490011F4000F013BF9D041EA3D
:103DEC000C0195E70CEAD15392EA0C0F08D1420270
:103DFC007FF47DAF93EA0C0F7FF470AF084676E743
:103E0C0093EA0C0F04D14B023FF44CAF08466EE71B
:103E1C0030F0004C18BF31F0004CCAD130F00042E9
:103E2C007FF45CAF31F000437FF43CAF5FE700BF41
:103E3C004FF0FF3C06E000BF4FF0010C02E000BF6A
:103E4C004FF0010C4DF804CD4FEA40024FEA41030C
:103E5C007FEA226C18BF7FEA236C11D001B052EAC2
:103E6C00530C18BF90EA010F58BFB2EB030088BF88
:103E7C00C81738BF6FEAE17018BF40F001007047F7
:103E8C007FEA226C02D15FEA402C05D17FEA236CD9
:103E9C00E4D15FEA412CE1D05DF8040B704700BF20
:103EAC00844608466146FFE70FB5FFF7C9FF0028B7
:103EBC0048BF10F1000F0FBD4DF808EDFFF7F4FFF0
:103ECC000CBF012000205DF808FB00BF4DF808ED89
:103EDC00FFF7EAFF34BF012000205DF808FB00BFAC
:103EEC004DF808EDFFF7E0FF94BF012000205DF8CE
:103EFC0008FB00BF4DF808EDFFF7D2FF94BF01207F
:103F0C0000205DF808FB00BF4DF808EDFFF7C8FF77
:103F1C0034BF012000205DF808FB00BF4FEA4002CF
:103F2C00B2F1FE4F0FD34FF09E03B3EB12620DD9DB
:103F3C004FEA002343F0004310F0004F23FA02F045
:103F4C0018BF404270474FF00000704712F1610FEC
:103F5C0001D1420205D110F0004008BF6FF00040C3
:103F6C0070474FF00000704710B500210446FFF772
:103F7C00ADFF20B92046BDE8104000F009B804F1AF
:103F8C00004000F005F8404261EB410110BD00BF5C
:103F9C00D0B5FFF7EDF900220B4B06460F46FFF7A5
:103FAC003FFAFFF777FC0446FFF7C0F90022074BF6
:103FBC00FFF736FA02460B4630463946FFF778F8DB
:103FCC00FFF768FC2146D0BD0000F03D0000F04139
:103FDC0010B50C46416986B001F26C7103698269B7
:103FEC000491016803EB43030391416802EB420225
:103FFC00029181680191C1682046009104490B44EB
:10400C0004490A440449FDF705FC204606B010BDDE
:10401C00DE470808C9470808A947080800230146D5
:10402C001A46184600F01AB90A22002100F00CB901
:10403C0008B5801A61EB0301FFF7C4F908BD0A4407
:10404C00914200F1FF3300D1704710B511F8014BCC
:10405C00914203F8014FF9D110BD0346024493423B
:10406C0000D1704703F8011BF9E7000038B50D4B80
:10407C0004461D68AB6B7BB91820FDF7B3FB0A4AED
:10408C000A4BA863C0E90023094B012283600B2370
:10409C0083810023C0E904230022AB6B1C615A61AD
:1040AC0038BD00BF1C0000200E33CDAB34126DE6C2
:1040BC00ECDE0500024610B5147813460132002CD4
:1040CC00FAD1013B11F8012B03F8012F002AF9D189
:1040DC0010BD10F8012B11F8013B012A28BF9A42A0
:1040EC00F7D0D01A70470000024B0146186800F058
:1040FC0003B800BF1C00002070B5044608460D46EE
:10410C0000F00DF8461C31462046FDF79BFB04469B
:10411C0018B132462946FFF792FF204670BD034680
:10412C0013F8012B002AFBD1181A013870470346EB
:10413C0010B5013932B111F8014F013A03F8014BB6
:10414C00002CF7D100211A44934200D110BD03F882
:10415C00011BF9E72DE9F0478C468646394E60463F
:10416C001CF8014BA55D15F00805F8D12D2C33D1A9
:10417C004FF001089CF8004000F1020C002B5CD0C1
:10418C00102B0CD1302C0AD19CF8000000F0DF0071
:10419C0058284DD110239CF801400CF1020C00263C
:1041AC0008F10047013FB7FBF3F9304603FB197ADE
:1041BC00A4F13005092D18D82C46A34224DD751C1A
:1041CC0007D081451DD301D1A2451ADB012600FB86
:1041DC0003401CF8014BEBE72B2C08BF9CF800406C
:1041EC00A84608BF00F1020CC8E7A4F14105192D3F
:1041FC0001D8373CE1E7A4F16105192D04D8573CEF
:10420C00DBE74FF0FF36E4E7731C06D12223384678
:10421C00CEF8003042B9BDE8F087B8F1000F00D0FD
:10422C004042002AF7D00EB10CF1FF311160F2E7D9
:10423C003024002BB3D10823B1E7302CA4D00A23AF
:10424C00ADE700BF0348080813460A46014602487A
:10425C000068FFF77FBF00BF1C0000202DE9F8436A
:10426C00DFF8BC800646D8F800001F460D46914684
:10427C0000F058F8264B1C6834B9264C1C60264BB1
:10428C0013B11B68C4F8883063681F2B07DDD8F89E
:10429C00000000F049F84FF0FF30BDE8F8835EB342
:1042AC00D4F8880088B91D4B23B9D8F8000000F069
:1042BC003AF8F0E74FF48470FDF794FA0028F4D044
:1042CC000023C0E94033C4F8880001226368022E41
:1042DC0040F8239002FA03F200EB8301D0F800318E
:1042EC0043EA0203C0F80031C1F8807002BFD0F875
:1042FC0004311A43C0F804216368D8F800005A1C32
:10430C000233626044F8235000F00EF80020C4E73A
:10431C00CC0600204006002000000000F117080821
:10432C008000002070477047704700002D0008087F
:10433C006D000808950008089900080800000000A6
:10434C00556E6B6E6F776E004E6F6E6500576946DB
:10435C00690047534D00554D54530043444D4100A3
:10436C004C54450049454545383032313534004CC4
:10437C0054455F4341545F4D31004C54455F4341BC
:10438C00545F4E423100506F6F72004C6F77004D8E
:10439C00656469756D005665727920476F6F6400AE
:1043AC00477265617400257320533A25322E3066AE
:1043BC0025252C20513A25322E306625252000410A
:1043CC00542B4346554E3D31360D0A0052657365EC
:1043DC007474696E6720696E2070726F6772657392
:1043EC00730032352520646F6E65003530252064EE
:1043FC006F6E650037352520646F6E6500446F6EF7
:10440C006500416C65727473005369676E616C0072
:10441C005265736574436F756E740052656C65619B
:10442C0073650073746174654F66436867007075DB
:10443C006D70416D70730070756D704D696E757433
:10444C0065730052657365742D4652414D0050756D
:10445C006D70436F6E74726F6C0052657365742D62
:10446C00436F756E747300486172642D5265736589
:10447C00740053656E642D4E6F7700566572626FD3
:10448C0073652D4D6F6465005365742D54696D65AE
:10449C007A6F6E65004E6F204461746100556269DD
:1044AC00646F747320486F6F6B00526573706F6E1E
:1044BC007365205265636569766564005374617435
:1044CC00650053657420566572626F7365204D6F7D
:1044DC006465003000436C656172656420566572DA
:1044EC00626F7365204D6F64650054696D65207A49
:1044FC006F6E65206F66667365742025690054695C
:10450C006D6500436F6E74726F6C20506F776572BF
:10451C00202D20004C6F77204C6576656C202D206B
:10452C000050756D70204F6E202D200050617274FC
:10453C0069636C6520506F776572007B22616C65D6
:10454C00727456616C7565223A25692C202270753F
:10455C006D70416D7073223A25692C202270756D37
:10456C00704D696E73223A25692C20226261747435
:10457C00657279223A25692C2022726573657473F1
:10458C00223A25697D004D6F6E69746F72696E6792
:10459C005F4576656E740057616974696E67206655
:1045AC006F7220526573706F6E73650049646C6531
:1045BC0000526573706F6E73652054696D656F750D
:1045CC0074204572726F72004552524F525F5354B1
:1045DC00415445202D20526573657474696E6700D3
:1045EC004C43080854430808594308085E4308081C
:1045FC0062430808674308086C43080870430808BE
:10460C007B43080886430808302E37300000000032
:10461C000000000000000000471908083D190808B8
:10462C0033190808B1020808271908081B190808CB
:10463C00E5240808ED2408080F19080807190808CC
:10464C00FD180808F3180808B7180808000000003F
:10465C0000000000F5190808271A0808F7190808BF
:10466C00351A0808651A0808891A0808B91A0808BA
:10467C00011B0808FB190808211A0808FCFFFFFF9A
:10468C0000000000271B08080000000000000000CC
:10469C00471B08084D1B08089D1B08085B1B0808D6
:1046AC00491B080800000000000000004D2208080B
:1046BC00972208086F2208084F220808772208085A
:1046CC007F220808872208088F22080800000000B3
:1046DC000000000005240808F5230808F723080843
:1046EC00617070000000000000000000A5240808A4
:1046FC00AF240808B9240808C3240808CD240808E6
:10470C00D9240808E5240808ED240808F52408082D
:10471C000125080809250808132508081D2508087F
:10472C0025592D256D2D25645425483A254D3A25BE
:10473C0053257A0061736374696D65000000000095
:10474C0000000000A52A08080F2B0808EB2A08080F
:10475C0097250808BB2A0808D72A0808C92A080878
:10476C00E52A0808A72A0808AD2A08080000000056
:10477C0000000000972B0808FD2B0808D52B080813
:10478C0097250808C72B0808992B0808A92B080897
:10479C00F72B0808B92B0808912B080800252E3395
:1047AC007320252E337325336420252E32643A254D
:1047BC002E32643A252E32642025640A0053756E1D
:1047CC004D6F6E54756557656454687546726953C0
:1047DC0061744A616E4665624D61724170724D61E1
:1047EC00794A756E4A756C4175675365704F637481
:1047FC004E6F76446563002020202020202020204E
:10480C002828282828202020202020202020202074
:10481C0020202020202020881010101010101010A4
:10482C0010101010101010040404040404040404E8
:10483C000410101010101010414141414141010170
:10484C00010101010101010101010101010101014C
:10485C00010110101010101042424242424202025A
:10486C00020202020202020202020202020202021C
:10487C0002021010101020000000000000000000C8
:10488C00000000000000000000000000000000001C
:10489C00000000000000000000000000000000000C
:1048AC0000000000000000000000000000000000FC
:1048BC0000000000000000000000000000000000EC
:1048CC0000000000000000000000000000000000DC
:1048DC0000000000000000000000000000000000CC
:1048EC0000000000000000000000000000000000BC
:1048FC00000000000000000001120808C51908089B
:10490C00952408086525080851260808AD280808CC
:10491C00912A0808893008080000000000000000F7
:04492C000000000087
:104930000000000000000000000000000000000077
:0849400000000000000000006F
:104948001E00000001000000E803000030750000B0
:10495800D0070000C8AF000040470808200000202A
:10496800000000000000000000000000000000003F
:10497800000000000000000000000000000000002F
:10498800000000000000000000000000000000001F
:10499800000000000000000000000000000000000F
:1049A80000000000000000000000000000000000FF
:1049B80000000000000000000000000000000000EF
:0449C800D1060020F4
:1049CC00FFFFFFFF00000102030405060708090AA8
:1049DC000B0C0D0E0F101112131415161718191AA3
:0849EC001B1C1D1E1F202800EA
:0449F40078563412AB
:040000050808001CCB
:00000001FF
